:100000000C942A000C9447000C9447000C94470071
:100010000C9447000C9447000C9447000C94470044
:100020000C9447000C9447000C9447000C94470034
:100030000C9447000C9447000C9447000C94470024
:100040000C9447000C9447000C9447000C94470014
:100050000C94470011241FBECFE5D8E0DEBFCDBF12
:1000600011E0A0E6B0E0E6E3F2E102C005900D92F7
:10007000AA33B107D9F711E0AAE3B1E001C01D929C
:10008000AA33B107E1F70E9449000C9419090C94B6
:100090000000CF93DF93CDB7DEB727970FB6F89464
:1000A000DEBF0FBECDBF0E94E1050E94F6010E9497
:1000B000ED020E94AC0180E290E0BE016F5F7F4FD5
:1000C0000E94CE0189818F3F09F060C081E068E025
:1000D00040E650E00E947C0382E061E048E650E0A8
:1000E0000E947C0383E061E04BE750E00E947C03C8
:1000F00000E210E00F2EFCE7CF2EF0E0DF2EF02D17
:100100000E940702E82E8FEF93ECA9E08150904007
:10011000A040E1F700C000008E2D80538A3080F7A8
:100120008E2D0E9424038FEF99E6A8E18150904024
:10013000A040E1F700C00000602F6F5183E0A601EE
:100140000E947C03C8016E2D0E94B0010F5F1F4FFB
:1001500004321105A9F681E00E94A40282E064E065
:100160004EE750E00E947C0383E065E04DE850E0FC
:100170000E947C038FEF93EDA0E381509040A0405C
:10018000E1F700C0000081E00E94A4020F2EF3E01E
:100190005F2EF02D0F2EFAE92F2EF0E03F2EF02DDE
:1001A0000F2EFBE78F2EF0E09F2EF02D6624772494
:1001B000689461F86C0E7D1E6E827F8244240F2E3F
:1001C000FCE7AF2EF0E0BF2EF02D81E066E0A1014C
:1001D0000E947C0382E061E046EA50E00E947C03DA
:1001E00083E061E0A4010E947C036301EE80FF8054
:1001F000042D0E940702182F8FEF93ECA9E0815085
:100200009040A040E1F700C00000812F80538A3069
:1002100080F7812F0E9424038FEF99E6A8E1815097
:100220009040A040E1F700C000000F5F83E0602F26
:10023000A5010E947C03D7011D937D010430C9F6FE
:10024000EE24FF246894E5F8142DC701BE016F5F0A
:100250007F4F0E94CE01F60191916F01898198171D
:1002600021F05A94143041F431C01F5F0894E11C0E
:10027000F11C143051F72AC081E00E94A40281E0F1
:1002800063E046EB50E00E947C0383E061E0A40160
:100290000E947C03852D805D0E942403F1E0F5150A
:1002A00028F085EC90E00E946D0304C081ED90E0A1
:1002B0000E946D038FEF9DE3A9E481509040A04020
:1002C000E1F700C0000081E00E94A402552021F067
:1002D000143009F07ACF2DC081E00E94A40281E0A1
:1002E00064E046EB50E00E947C0384E061E00E9401
:1002F000FF0386E161E00E94FF038FEF99E6A8E12A
:1003000081509040A040E1F700C0000084E060E030
:100310000E94FF0386E160E00E94FF038FEF91EEF1
:10032000A4E081509040A040E1F700C00000DDCF84
:10033000FFCF81E00E94A40281E067E040E650E048
:100340000E947C0383E063E04EED50E00E947C035A
:100350008AE50E94D603ECCF84E10E945D050895F2
:100360001F93CF93DF93D82F192FC62F0E946C05B0
:10037000812F80650E948F058D2F0E94B5058C2FDF
:100380000E94B5050E9488058FE19EE40197F1F770
:1003900000C00000DF91CF911F9108950F931F932C
:1003A000CF93DF93082FEB012097D9F0192F106519
:1003B0000E946C05812F0E948F05802F0E94B50539
:1003C0000E947A05812F0E94A205CE0161E00E9461
:1003D000C1050E9488058FE19EE40197F1F700C0F6
:1003E0000000DF91CF911F910F9108958FE161E09F
:1003F0000E94FF038EE161E00E94FF038CE161E057
:100400000E94FF038BE161E00E94FF0308952F9299
:100410003F924F925F926F927F928F929F92AF9294
:10042000BF92CF92DF92EF92FF920F931F93CF93E1
:10043000DF93CDB7DEB760970FB6F894DEBF0FBE7F
:10044000CDBFDE011196E4EFF0E080E101900D9266
:100450008150E1F70F2EFCEEAF2EF0E0BF2EF02D15
:10046000882499240F2EF0EF2F2EF0E03F2EF02D50
:1004700024013501F501808160E00E94FF037101D4
:1004800000E010E06801F70181917F010E9488047B
:10049000882399F4F201EE0FFF1FEE0FFF1FCE0E1F
:1004A000DF1EFE01EC0DFD1D0181F201E451FF4F45
:1004B000808161E00E94FF0306C00F5F1F4F043080
:1004C000110501F71AC0802F60960FB6F894DEBFB1
:1004D0000FBECDBFDF91CF911F910F91FF90EF9095
:1004E000DF90CF90BF90AF909F908F907F906F9054
:1004F0005F904F903F902F9008950894A11CB11CDD
:10050000F301808161E00E94FF030894811C911C2B
:10051000F4E08F16910409F0ABCF0FEFD4CF82E057
:1005200061E00E94FF038FE39FE10197F1F700C0B4
:10053000000082E060E00E94FF038FE39FE10197EB
:10054000F1F700C000000895CF93C82F682F62957F
:100550006F70617088E00E94FF036C2F6295669552
:100560006770617089E00E94FF036C2F6295669549
:100570006695637061708AE00E94FF036C2F661FAE
:100580006627661F8CE00E94FF0383E060E00E9404
:10059000FF030E948F026C2F617088E00E94FF03AE
:1005A0006C2F6695617089E00E94FF036C2F669541
:1005B000669561708AE00E94FF03C695C695C69550
:1005C0006C2F61708CE00E94FF0383E060E00E946A
:1005D000FF030E948F02CF9108958FEF92E5A7E06D
:1005E00081509040A040E1F700C0000082E00E94EE
:1005F000A402AFE3BCE91197F1F700C0000088E264
:100600000E94A4028FE99FE00197F1F700C000006B
:100610008CE00E94A402AFE9BFE01197F1F700C09F
:10062000000081E00E94A4028FE39CE90197F1F7AA
:1006300000C0000086E00E94A402AFE9BFE011976D
:10064000F1F700C000000895CF93C82F682F62957E
:100650006F70617088E00E94FF036C2F6295669551
:100660006770617089E00E94FF036C2F6295669548
:100670006695637061708AE00E94FF036C2F661FAD
:100680006627661F8CE00E94FF0383E061E00E9402
:10069000FF030E948F026C2F617088E00E94FF03AD
:1006A0006C2F6695617089E00E94FF036C2F669540
:1006B000669561708AE00E94FF03C695C695C6954F
:1006C0006C2F61708CE00E94FF0383E061E00E9468
:1006D000FF030E948F02CF910895CF93DF93EC0127
:1006E0008881882331F021960E94240389918823F0
:1006F000D9F7DF91CF910895CF93DF93EA0181304D
:1007000011F0853018F0862F81580CC0823019F412
:10071000862F815407C0833019F4862F8D5602C06E
:10072000862F8D520E94A402CE010E946D03DF919C
:10073000CF9108951F93CF93DF93CDB7DEB72A975C
:100740000FB6F894DEBF0FBECDBF009721F480E353
:100750000E94240321C010E02AE030E0E1E0F0E054
:10076000EC0FFD1FE10FF11DB9010E94E30880832A
:10077000862F972F1F5F009789F7112369F011507B
:10078000E1E0F0E0EC0FFD1FE10FF11D8081805DE5
:100790000E942403112399F72A960FB6F894DEBF1E
:1007A0000FBECDBFDF91CF911F910895CF93C82F7A
:1007B0000E946A0682E390E00E94BF066C2F70E000
:1007C00080E090E00E94D00720E030E040EA50E472
:1007D0000E94800820E030E044E353E40E943A079E
:1007E00020E030E040EA50E40E94D2060E948E06EB
:1007F0000E947D06CF9108950E9487060895982F44
:10080000969596959695913031F1913038F09230D9
:1008100009F440C0933009F07AC05BC0613069F4DC
:100820004BB321E030E0B90102C0660F771F8A9513
:10083000E2F7CB01842B8BBB08954BB321E030E072
:10084000B90102C0660F771F8A95E2F7CB01809548
:1008500084238BBB0895613071F448B3877021E025
:1008600030E0B90102C0660F771F8A95E2F7CB012D
:10087000842B88BB089548B3877021E030E0B9012C
:1008800002C0660F771F8A95E2F7CB01809584231B
:1008900088BB0895613071F445B3877021E030E082
:1008A000B90102C0660F771F8A95E2F7CB01842B4E
:1008B00085BB089545B3877021E030E0B90102C0DF
:1008C000660F771F8A95E2F7CB018095842385BB5D
:1008D0000895613071F442B3877021E030E0B901CE
:1008E00002C0660F771F8A95E2F7CB01842B82BB8B
:1008F000089542B3877021E030E0B90102C0660F6D
:10090000771F8A95E2F7CB018095842382BB0895F7
:10091000982F969596959695913091F0913028F074
:100920009230D1F0933081F523C029B330E0A90192
:1009300002C0559547958A95E2F7CA0181700895DE
:1009400026B330E08770A90102C0559547958A9576
:10095000E2F7CA018170089523B330E08770A901DE
:1009600002C0559547958A95E2F7CA0181700895AE
:1009700020B330E08770A90102C0559547958A954C
:10098000E2F7CA018170089580E00895813049F04E
:10099000813028F0823039F0833041F406C089B3C9
:1009A000089586B3089583B3089580B30895813080
:1009B00049F0813028F0823039F0833041F406C0AC
:1009C0006BBB089568BB089565BB089562BB08952D
:1009D000982F9695969596959130F9F0913030F044
:1009E0009230A9F1933009F066C04BC09BB341E04F
:1009F00050E09A01082E02C0220F331F0A94E2F73A
:100A000029272BBB2BB330E0A90102C05595479590
:100A10008A95E2F7CA018170089568B390E0877003
:100A2000907041E050E09A01082E02C0220F331F5F
:100A30000A94E2F7262728BB28B330E0A90102C0B8
:100A4000559547958A95E2F7CA018170089565B377
:100A500090E08770907041E050E09A01082E02C04B
:100A6000220F331F0A94E2F7262725BB25B330E077
:100A7000A90102C0559547958A95E2F7CA01817090
:100A8000089562B390E08770907041E050E09A0161
:100A9000082E02C0220F331F0A94E2F7262722BB3A
:100AA00022B330E0A90102C0559547958A95E2F737
:100AB000CA018170089580E00895181614F4880F13
:100AC00082B98CE080B90898099886B7806486BF9F
:100AD00086B7846086BF089586B7806286BF86B772
:100AE000806886BF06B607FEFDCF81B1887F88305B
:100AF000E1F7089586B7806286BF86B7806886BFB3
:100B000006B607FEFDCF81B1887F8031E1F70895F9
:100B100086B7806186BF86B7806886BF08958823C0
:100B200084F0880F83B9189886B78F7D86BF86B703
:100B3000806886BF06B607FEFDCF81B1887F883109
:100B4000E1F70895882384F0880F83B9189A86B74F
:100B50008F7D86BF86B7806886BF06B607FEFDCF4D
:100B600081B1887F8034E1F7089583B986B78068C2
:100B700086BF06B607FEFDCF81B1887F8832E1F7D8
:100B800008950097E9F0613021F426B72F7B26BF46
:100B900003C026B7206426BF26B7206826BF06B646
:100BA00007FEFDCF613029F421B1287F2835E1F718
:100BB00004C021B1287F2035E1F723B1FC01208357
:100BC0000895CF93DF9325E031E0E901219645E6D2
:100BD00051E061E070E0D901F90131978081813005
:100BE00011F1813030F08230C1F1833009F068C0FA
:100BF0004EC08881813059F4EAB3CB010C9002C019
:100C0000880F991F0A94E2F78E2B8ABB59C0EAB36A
:100C1000CB010C9002C0880F991F0A94E2F78095CF
:100C20008E238ABB4DC08881813059F4E7B3CB0154
:100C30000C9002C0880F991F0A94E2F78E2B87BB95
:100C40003FC0E7B3CB010C9002C0880F991F0A94F4
:100C5000E2F780958E2387BB33C08881813059F4B9
:100C6000E4B3CB010C9002C0880F991F0A94E2F7FD
:100C70008E2B84BB25C0E4B3CB010C9002C0880F3F
:100C8000991F0A94E2F780958E2384BB19C088814E
:100C9000813059F4E1B3CB010C9002C0880F991F49
:100CA0000A94E2F78E2B81BB0BC0E1B3CB010C9011
:100CB00002C0880F991F0A94E2F780958E2381BBAA
:100CC0002D5F3F4F23962417350709F084CFDF911E
:100CD000CF9108958FB58E7F8FBD8FB582608FBD08
:100CE0008EB588608EBD8EB580618EBD8FB58F7BD1
:100CF0008FBD8FB580688FBD08958EB581608EBD24
:100D00008EB582608EBD8EB58B7F8EBD08958EB5FB
:100D1000887F8EBD08959BBD8ABD0895CF92DF92D6
:100D2000EF92FF926B017C0120E030E048EC52E44E
:100D30000E9436071816F4F066B577B56F5F7F4FDF
:100D400080E090E00E94CE07A70196010E948008F3
:100D500020E030E048EC52E40E943A0720E030E026
:100D600040E85FE30E94D1060E94A207DC01CB01AC
:100D70009BBD8ABDFF90EF90DF90CF9008959C01BE
:100D8000220F331F220F331F40E050E060E472E473
:100D90008FE090E00E94F7082150304037BD26BD1B
:100DA00008955058BB27AA270ED070C161D130F0EA
:100DB00066D120F031F49F3F11F41EF456C10EF4B9
:100DC000E095E7FB4CC1E92F72D180F3BA176207B7
:100DD00073078407950718F071F49EF58AC10EF425
:100DE000E0950B2EBA2FA02D0B01B90190010C013B
:100DF000CA01A0011124FF27591B99F0593F50F453
:100E0000503E68F11A16F040A22F232F342F4427AA
:100E1000585FF3CF469537952795A795F0405395A2
:100E2000C9F77EF41F16BA0B620B730B840BBAF072
:100E30009150A1F0FF0FBB1F661F771F881FC2F7DD
:100E40000EC0BA0F621F731F841F48F487957795F1
:100E50006795B795F7959E3F08F0B3CF9395880FA8
:100E600008F09927EE0F979587950895D4D008F448
:100E700081E008950CD00AC102D140F0F9D030F0E1
:100E800021F45F3F19F0EBC0511134C1EEC00FD116
:100E900098F39923C9F35523B1F3951B550BBB2741
:100EA000AA2762177307840738F09F5F5F4F220FEE
:100EB000331F441FAA1FA9F333D00E2E3AF0E0E8E7
:100EC00030D091505040E695001CCAF729D0FE2F33
:100ED00027D0660F771F881FBB1F261737074807C5
:100EE000AB07B0E809F0BB0B802DBF01FF2793587B
:100EF0005F4F2AF09E3F510568F0B1C0FBC05F3FD5
:100F0000ECF3983EDCF3869577956795B795F79562
:100F10009F5FC9F7880F911D9695879597F908955A
:100F2000E1E0660F771F881FBB1F621773078407F6
:100F3000BA0720F0621B730B840BBA0BEE1F88F705
:100F4000E0950895BCD088F09F5790F0B92F99276D
:100F5000B751A0F0D1F0660F771F881F991F1AF0C4
:100F6000BA95C9F712C0B13081F0C3D0B1E008958D
:100F7000C0C0672F782F8827B85F39F0B93FCCF30E
:100F8000869577956795B395D9F73EF490958095BA
:100F9000709561957F4F8F4F9F4F0895E89409C0DA
:100FA00097FB3EF490958095709561957F4F8F4F9C
:100FB0009F4F9923A9F0F92F96E9BB279395F695B2
:100FC000879577956795B795F111F8CFFAF4BB0F30
:100FD00011F460FF1BC06F5F7F4F8F4F9F4F16C094
:100FE000882311F096E911C0772321F09EE8872F1E
:100FF000762F05C0662371F096E8862F70E060E0DA
:101000002AF09A95660F771F881FDAF7880F969552
:10101000879597F90895990F0008550FAA0BE0E8F6
:10102000FEEF16161706E807F907C0F012161306AA
:10103000E407F50798F0621B730B840B950B39F4EA
:101040000A2661F0232B242B252B21F408950A2650
:1010500009F4A140A6958FEF811D811D089597F990
:101060009F6780E870E060E008959FEF80EC08954E
:1010700000240A9416161706180609060895002477
:101080000A9412161306140605060895092E0394F1
:10109000000C11F4882352F0BB0F40F4BF2B11F465
:1010A00060FF04C06F5F7F4F8F4F9F4F089557FDC4
:1010B0009058440F551F59F05F3F71F04795880FC6
:1010C00097FB991F61F09F3F79F08795089512165D
:1010D00013061406551FF2CF4695F1DF08C0161609
:1010E00017061806991FF1CF8695710561050894BA
:1010F0000895E894BB2766277727CB0197F90895D1
:101100000BD0C4CFB5DF28F0BADF18F0952309F073
:10111000A6CFABCF1124EECFCADFA0F3959FD1F3BA
:10112000950F50E0551F629FF001729FBB27F00D95
:10113000B11D639FAA27F00DB11DAA1F649F6627EA
:10114000B00DA11D661F829F2227B00DA11D621F39
:10115000739FB00DA11D621F839FA00D611D221FF3
:10116000749F3327A00D611D231F849F600D211DD7
:10117000822F762F6A2F11249F5750408AF0E1F07A
:1011800088234AF0EE0FFF1FBB1F661F771F881FC3
:1011900091505040A9F79E3F510570F060CFAACF03
:1011A0005F3FECF3983EDCF3869577956795B795AE
:1011B000F795E7959F5FC1F7FE2B880F911D9695D8
:1011C000879597F90895AA1BBB1B51E107C0AA1F79
:1011D000BB1FA617B70710F0A61BB70B881F991FD8
:1011E0005A95A9F780959095BC01CD010895A1E28B
:1011F0001A2EAA1BBB1BFD010DC0AA1FBB1FEE1F91
:10120000FF1FA217B307E407F50720F0A21BB30BDB
:10121000E40BF50B661F771F881F991F1A9469F757
:1012200060957095809590959B01AC01BD01CF01B3
:061230000895F894FFCFC1
:1012360057656C636F6D650053657420596F7572E1
:101246002050617373776F72643A00002A00506110
:101256007373776F726420536176656400537563A8
:101266006365737366756C6C7900446F6F72204C9E
:101276004F434B454400456E74657220506173734D
:10128600776F72643A0057726F6E6720506173739E
:10129600776F72640020547269616C204C656674C5
:1012A6000020547269616C73204C65667400446F4B
:1012B6006F7220554E4C4F434B4544001514131284
:1012C6001F1E1C1B3738392F3435362A3132332D41
:1012D60041303D2B02050102040102030102020115
:1012E60003070003060003040003030000020100D5
:1012F60003010100010101010102010104010305CD
:0A13060001000401020601FFFFFFD1
:00000001FF
